{
  "address": "0x6dbE10BFC331CB8b7b1c17ce252a6f178D74E912",
  "abi": [
    {
      "inputs": [
        {
          "internalType": "contract IERC20",
          "name": "initBnt",
          "type": "address"
        },
        {
          "internalType": "address",
          "name": "initDustWallet",
          "type": "address"
        },
        {
          "components": [
            {
              "internalType": "contract IBancorNetworkV2",
              "name": "bancorNetworkV2",
              "type": "address"
            },
            {
              "internalType": "contract IBancorNetwork",
              "name": "bancorNetworkV3",
              "type": "address"
            },
            {
              "internalType": "contract IUniswapV2Router02",
              "name": "uniV2Router",
              "type": "address"
            },
            {
              "internalType": "contract ISwapRouter",
              "name": "uniV3Router",
              "type": "address"
            },
            {
              "internalType": "contract IUniswapV2Router02",
              "name": "sushiswapRouter",
              "type": "address"
            },
            {
              "internalType": "contract ICarbonController",
              "name": "carbonController",
              "type": "address"
            }
          ],
          "internalType": "struct BancorArbitrage.Exchanges",
          "name": "exchanges",
          "type": "tuple"
        }
      ],
      "stateMutability": "nonpayable",
      "type": "constructor"
    },
    {
      "inputs": [],
      "name": "AccessDenied",
      "type": "error"
    },
    {
      "inputs": [],
      "name": "AlreadyInitialized",
      "type": "error"
    },
    {
      "inputs": [],
      "name": "InsufficientBurn",
      "type": "error"
    },
    {
      "inputs": [],
      "name": "InvalidAddress",
      "type": "error"
    },
    {
      "inputs": [],
      "name": "InvalidETHAmountSent",
      "type": "error"
    },
    {
      "inputs": [],
      "name": "InvalidExchangeId",
      "type": "error"
    },
    {
      "inputs": [],
      "name": "InvalidFee",
      "type": "error"
    },
    {
      "inputs": [],
      "name": "InvalidFlashLoanCaller",
      "type": "error"
    },
    {
      "inputs": [],
      "name": "InvalidInitialAndFinalTokens",
      "type": "error"
    },
    {
      "inputs": [],
      "name": "InvalidRouteLength",
      "type": "error"
    },
    {
      "inputs": [],
      "name": "InvalidSourceToken",
      "type": "error"
    },
    {
      "inputs": [],
      "name": "MinTargetAmountTooHigh",
      "type": "error"
    },
    {
      "inputs": [],
      "name": "Overflow",
      "type": "error"
    },
    {
      "inputs": [],
      "name": "ZeroValue",
      "type": "error"
    },
    {
      "anonymous": false,
      "inputs": [
        {
          "indexed": true,
          "internalType": "address",
          "name": "caller",
          "type": "address"
        },
        {
          "indexed": false,
          "internalType": "uint16[]",
          "name": "exchangeIds",
          "type": "uint16[]"
        },
        {
          "indexed": false,
          "internalType": "address[]",
          "name": "tokenPath",
          "type": "address[]"
        },
        {
          "indexed": false,
          "internalType": "uint256",
          "name": "sourceAmount",
          "type": "uint256"
        },
        {
          "indexed": false,
          "internalType": "uint256",
          "name": "burnAmount",
          "type": "uint256"
        },
        {
          "indexed": false,
          "internalType": "uint256",
          "name": "rewardAmount",
          "type": "uint256"
        }
      ],
      "name": "ArbitrageExecuted",
      "type": "event"
    },
    {
      "anonymous": false,
      "inputs": [
        {
          "indexed": false,
          "internalType": "uint8",
          "name": "version",
          "type": "uint8"
        }
      ],
      "name": "Initialized",
      "type": "event"
    },
    {
      "anonymous": false,
      "inputs": [
        {
          "indexed": false,
          "internalType": "uint256",
          "name": "prevAmount",
          "type": "uint256"
        },
        {
          "indexed": false,
          "internalType": "uint256",
          "name": "newAmount",
          "type": "uint256"
        }
      ],
      "name": "MinBurnUpdated",
      "type": "event"
    },
    {
      "anonymous": false,
      "inputs": [
        {
          "indexed": false,
          "internalType": "uint32",
          "name": "prevPercentagePPM",
          "type": "uint32"
        },
        {
          "indexed": false,
          "internalType": "uint32",
          "name": "newPercentagePPM",
          "type": "uint32"
        },
        {
          "indexed": false,
          "internalType": "uint256",
          "name": "prevMaxAmount",
          "type": "uint256"
        },
        {
          "indexed": false,
          "internalType": "uint256",
          "name": "newMaxAmount",
          "type": "uint256"
        }
      ],
      "name": "RewardsUpdated",
      "type": "event"
    },
    {
      "anonymous": false,
      "inputs": [
        {
          "indexed": true,
          "internalType": "bytes32",
          "name": "role",
          "type": "bytes32"
        },
        {
          "indexed": true,
          "internalType": "bytes32",
          "name": "previousAdminRole",
          "type": "bytes32"
        },
        {
          "indexed": true,
          "internalType": "bytes32",
          "name": "newAdminRole",
          "type": "bytes32"
        }
      ],
      "name": "RoleAdminChanged",
      "type": "event"
    },
    {
      "anonymous": false,
      "inputs": [
        {
          "indexed": true,
          "internalType": "bytes32",
          "name": "role",
          "type": "bytes32"
        },
        {
          "indexed": true,
          "internalType": "address",
          "name": "account",
          "type": "address"
        },
        {
          "indexed": true,
          "internalType": "address",
          "name": "sender",
          "type": "address"
        }
      ],
      "name": "RoleGranted",
      "type": "event"
    },
    {
      "anonymous": false,
      "inputs": [
        {
          "indexed": true,
          "internalType": "bytes32",
          "name": "role",
          "type": "bytes32"
        },
        {
          "indexed": true,
          "internalType": "address",
          "name": "account",
          "type": "address"
        },
        {
          "indexed": true,
          "internalType": "address",
          "name": "sender",
          "type": "address"
        }
      ],
      "name": "RoleRevoked",
      "type": "event"
    },
    {
      "inputs": [],
      "name": "DEFAULT_ADMIN_ROLE",
      "outputs": [
        {
          "internalType": "bytes32",
          "name": "",
          "type": "bytes32"
        }
      ],
      "stateMutability": "view",
      "type": "function"
    },
    {
      "inputs": [],
      "name": "EXCHANGE_ID_BANCOR_V2",
      "outputs": [
        {
          "internalType": "uint16",
          "name": "",
          "type": "uint16"
        }
      ],
      "stateMutability": "view",
      "type": "function"
    },
    {
      "inputs": [],
      "name": "EXCHANGE_ID_BANCOR_V3",
      "outputs": [
        {
          "internalType": "uint16",
          "name": "",
          "type": "uint16"
        }
      ],
      "stateMutability": "view",
      "type": "function"
    },
    {
      "inputs": [],
      "name": "EXCHANGE_ID_CARBON",
      "outputs": [
        {
          "internalType": "uint16",
          "name": "",
          "type": "uint16"
        }
      ],
      "stateMutability": "view",
      "type": "function"
    },
    {
      "inputs": [],
      "name": "EXCHANGE_ID_SUSHISWAP",
      "outputs": [
        {
          "internalType": "uint16",
          "name": "",
          "type": "uint16"
        }
      ],
      "stateMutability": "view",
      "type": "function"
    },
    {
      "inputs": [],
      "name": "EXCHANGE_ID_UNISWAP_V2",
      "outputs": [
        {
          "internalType": "uint16",
          "name": "",
          "type": "uint16"
        }
      ],
      "stateMutability": "view",
      "type": "function"
    },
    {
      "inputs": [],
      "name": "EXCHANGE_ID_UNISWAP_V3",
      "outputs": [
        {
          "internalType": "uint16",
          "name": "",
          "type": "uint16"
        }
      ],
      "stateMutability": "view",
      "type": "function"
    },
    {
      "inputs": [
        {
          "components": [
            {
              "internalType": "uint16",
              "name": "exchangeId",
              "type": "uint16"
            },
            {
              "internalType": "contract Token",
              "name": "targetToken",
              "type": "address"
            },
            {
              "internalType": "uint256",
              "name": "minTargetAmount",
              "type": "uint256"
            },
            {
              "internalType": "uint256",
              "name": "deadline",
              "type": "uint256"
            },
            {
              "internalType": "address",
              "name": "customAddress",
              "type": "address"
            },
            {
              "internalType": "uint256",
              "name": "customInt",
              "type": "uint256"
            },
            {
              "internalType": "bytes",
              "name": "customData",
              "type": "bytes"
            }
          ],
          "internalType": "struct BancorArbitrage.Route[]",
          "name": "routes",
          "type": "tuple[]"
        },
        {
          "internalType": "contract Token",
          "name": "token",
          "type": "address"
        },
        {
          "internalType": "uint256",
          "name": "sourceAmount",
          "type": "uint256"
        }
      ],
      "name": "flashloanAndArb",
      "outputs": [],
      "stateMutability": "nonpayable",
      "type": "function"
    },
    {
      "inputs": [
        {
          "components": [
            {
              "internalType": "uint16",
              "name": "exchangeId",
              "type": "uint16"
            },
            {
              "internalType": "contract Token",
              "name": "targetToken",
              "type": "address"
            },
            {
              "internalType": "uint256",
              "name": "minTargetAmount",
              "type": "uint256"
            },
            {
              "internalType": "uint256",
              "name": "deadline",
              "type": "uint256"
            },
            {
              "internalType": "address",
              "name": "customAddress",
              "type": "address"
            },
            {
              "internalType": "uint256",
              "name": "customInt",
              "type": "uint256"
            },
            {
              "internalType": "bytes",
              "name": "customData",
              "type": "bytes"
            }
          ],
          "internalType": "struct BancorArbitrage.Route[]",
          "name": "routes",
          "type": "tuple[]"
        },
        {
          "internalType": "contract Token",
          "name": "token",
          "type": "address"
        },
        {
          "internalType": "uint256",
          "name": "sourceAmount",
          "type": "uint256"
        }
      ],
      "name": "fundAndArb",
      "outputs": [],
      "stateMutability": "payable",
      "type": "function"
    },
    {
      "inputs": [
        {
          "internalType": "bytes32",
          "name": "role",
          "type": "bytes32"
        }
      ],
      "name": "getRoleAdmin",
      "outputs": [
        {
          "internalType": "bytes32",
          "name": "",
          "type": "bytes32"
        }
      ],
      "stateMutability": "view",
      "type": "function"
    },
    {
      "inputs": [
        {
          "internalType": "bytes32",
          "name": "role",
          "type": "bytes32"
        },
        {
          "internalType": "uint256",
          "name": "index",
          "type": "uint256"
        }
      ],
      "name": "getRoleMember",
      "outputs": [
        {
          "internalType": "address",
          "name": "",
          "type": "address"
        }
      ],
      "stateMutability": "view",
      "type": "function"
    },
    {
      "inputs": [
        {
          "internalType": "bytes32",
          "name": "role",
          "type": "bytes32"
        }
      ],
      "name": "getRoleMemberCount",
      "outputs": [
        {
          "internalType": "uint256",
          "name": "",
          "type": "uint256"
        }
      ],
      "stateMutability": "view",
      "type": "function"
    },
    {
      "inputs": [
        {
          "internalType": "bytes32",
          "name": "role",
          "type": "bytes32"
        },
        {
          "internalType": "address",
          "name": "account",
          "type": "address"
        }
      ],
      "name": "grantRole",
      "outputs": [],
      "stateMutability": "nonpayable",
      "type": "function"
    },
    {
      "inputs": [
        {
          "internalType": "bytes32",
          "name": "role",
          "type": "bytes32"
        },
        {
          "internalType": "address",
          "name": "account",
          "type": "address"
        }
      ],
      "name": "hasRole",
      "outputs": [
        {
          "internalType": "bool",
          "name": "",
          "type": "bool"
        }
      ],
      "stateMutability": "view",
      "type": "function"
    },
    {
      "inputs": [],
      "name": "initialize",
      "outputs": [],
      "stateMutability": "nonpayable",
      "type": "function"
    },
    {
      "inputs": [],
      "name": "minBurn",
      "outputs": [
        {
          "internalType": "uint256",
          "name": "",
          "type": "uint256"
        }
      ],
      "stateMutability": "view",
      "type": "function"
    },
    {
      "inputs": [
        {
          "internalType": "address",
          "name": "caller",
          "type": "address"
        },
        {
          "internalType": "contract IERC20",
          "name": "erc20Token",
          "type": "address"
        },
        {
          "internalType": "uint256",
          "name": "amount",
          "type": "uint256"
        },
        {
          "internalType": "uint256",
          "name": "feeAmount",
          "type": "uint256"
        },
        {
          "internalType": "bytes",
          "name": "data",
          "type": "bytes"
        }
      ],
      "name": "onFlashLoan",
      "outputs": [],
      "stateMutability": "nonpayable",
      "type": "function"
    },
    {
      "inputs": [
        {
          "internalType": "bytes",
          "name": "data",
          "type": "bytes"
        }
      ],
      "name": "postUpgrade",
      "outputs": [],
      "stateMutability": "nonpayable",
      "type": "function"
    },
    {
      "inputs": [
        {
          "internalType": "bytes32",
          "name": "role",
          "type": "bytes32"
        },
        {
          "internalType": "address",
          "name": "account",
          "type": "address"
        }
      ],
      "name": "renounceRole",
      "outputs": [],
      "stateMutability": "nonpayable",
      "type": "function"
    },
    {
      "inputs": [
        {
          "internalType": "bytes32",
          "name": "role",
          "type": "bytes32"
        },
        {
          "internalType": "address",
          "name": "account",
          "type": "address"
        }
      ],
      "name": "revokeRole",
      "outputs": [],
      "stateMutability": "nonpayable",
      "type": "function"
    },
    {
      "inputs": [],
      "name": "rewards",
      "outputs": [
        {
          "components": [
            {
              "internalType": "uint32",
              "name": "percentagePPM",
              "type": "uint32"
            },
            {
              "internalType": "uint256",
              "name": "maxAmount",
              "type": "uint256"
            }
          ],
          "internalType": "struct BancorArbitrage.Rewards",
          "name": "",
          "type": "tuple"
        }
      ],
      "stateMutability": "view",
      "type": "function"
    },
    {
      "inputs": [],
      "name": "roleAdmin",
      "outputs": [
        {
          "internalType": "bytes32",
          "name": "",
          "type": "bytes32"
        }
      ],
      "stateMutability": "pure",
      "type": "function"
    },
    {
      "inputs": [
        {
          "internalType": "uint256",
          "name": "newMinBurn",
          "type": "uint256"
        }
      ],
      "name": "setMinBurn",
      "outputs": [],
      "stateMutability": "nonpayable",
      "type": "function"
    },
    {
      "inputs": [
        {
          "components": [
            {
              "internalType": "uint32",
              "name": "percentagePPM",
              "type": "uint32"
            },
            {
              "internalType": "uint256",
              "name": "maxAmount",
              "type": "uint256"
            }
          ],
          "internalType": "struct BancorArbitrage.Rewards",
          "name": "newRewards",
          "type": "tuple"
        }
      ],
      "name": "setRewards",
      "outputs": [],
      "stateMutability": "nonpayable",
      "type": "function"
    },
    {
      "inputs": [
        {
          "internalType": "bytes4",
          "name": "interfaceId",
          "type": "bytes4"
        }
      ],
      "name": "supportsInterface",
      "outputs": [
        {
          "internalType": "bool",
          "name": "",
          "type": "bool"
        }
      ],
      "stateMutability": "view",
      "type": "function"
    },
    {
      "inputs": [],
      "name": "version",
      "outputs": [
        {
          "internalType": "uint16",
          "name": "",
          "type": "uint16"
        }
      ],
      "stateMutability": "pure",
      "type": "function"
    },
    {
      "stateMutability": "payable",
      "type": "receive"
    }
  ],
  "transactionHash": "0x7816e01b80a4cf020bb1ddf6a0ea3ae2ef67b1719b8d0c1460cb250c05563b48",
  "args": [
    "0x1F573D6Fb3F13d689FF844B4cE37794d79a7FF1C",
    "0xeBcC959479634EEC5A4d7162e36f8B8cc763f491",
    {
      "bancorNetworkV2": "0x2F9EC37d6CcFFf1caB21733BdaDEdE11c823cCB0",
      "bancorNetworkV3": "0xeEF417e1D5CC832e619ae18D2F140De2999dD4fB",
      "uniV2Router": "0x7a250d5630B4cF539739dF2C5dAcb4c659F2488D",
      "uniV3Router": "0xE592427A0AEce92De3Edee1F18E0157C05861564",
      "sushiswapRouter": "0xd9e1cE17f2641f24aE83637ab66a2cca9C378B9F",
      "carbonController": "0xC537e898CD774e2dCBa3B14Ea6f34C93d5eA45e1"
    }
  ],
  "numDeployments": 3,
  "solcInputHash": "45de3d5199437d40d6bb5b8393a69e23",
  "bytecode": "0x6101a06040523480156200001257600080fd5b50604051620041ab380380620041ab8339810160408190526200003591620001e5565b82620000418162000192565b826200004d8162000192565b82516200005a8162000192565b60208401516200006a8162000192565b60408501516200007a8162000192565b60608601516200008a8162000192565b60808701516200009a8162000192565b60a0880151620000aa8162000192565b8a6001600160a01b03166080816001600160a01b03168152505088604001516001600160a01b031663ad5c46486040518163ffffffff1660e01b8152600401602060405180830381865afa15801562000107573d6000803e3d6000fd5b505050506040513d601f19601f820116820180604052508101906200012d9190620002e3565b6001600160a01b0390811660a09081529a8116610180528951811660c05260208a0151811660e05260408a015181166101005260608a015181166101205260808a0151811661014052989099015190971661016052506200030a975050505050505050565b6001600160a01b038116620001ba5760405163e6c4247b60e01b815260040160405180910390fd5b50565b6001600160a01b0381168114620001ba57600080fd5b8051620001e081620001bd565b919050565b6000806000838503610100811215620001fd57600080fd5b84516200020a81620001bd565b60208601519094506200021d81620001bd565b925060c0603f19820112156200023257600080fd5b5060405160c081016001600160401b03811182821017156200026457634e487b7160e01b600052604160045260246000fd5b80604052506200027760408601620001d3565b81526200028760608601620001d3565b60208201526200029a60808601620001d3565b6040820152620002ad60a08601620001d3565b6060820152620002c060c08601620001d3565b6080820152620002d360e08601620001d3565b60a0820152809150509250925092565b600060208284031215620002f657600080fd5b81516200030381620001bd565b9392505050565b60805160a05160c05160e0516101005161012051610140516101605161018051613da4620004076000396000611ce6015260008181611bc10152611c230152600061146c01526000818161190b015261198c01526000611492015260008181610520015281816106ff01528181610c550152818161134801526113d401526000818161119e01526112970152600081816114f90152818161163c015281816117f301528181611835015281816118590152818161189201528181611a6b0152611ab70152600081816107a5015281816107fd01528181610bfd01528181610d8501528181611d4701528181611e2a0152611e6d0152613da46000f3fe6080604052600436106101855760003560e01c80638cd2403d116100d1578063a217fddf1161008a578063c51f3cf711610064578063c51f3cf714610480578063ca15c87314610495578063d547741f146104b5578063e01113e8146104d557600080fd5b8063a217fddf14610442578063a47c9a2d14610457578063aeb2c8871461046d57600080fd5b80638cd2403d146103365780639010d07c1461035657806391d148541461038e57806393867fb5146103ae57806396bfaa9e146103cf5780639ec5a894146103ef57600080fd5b806336568abe1161013e57806355814b7c1161011857806355814b7c146102cc578063591421a6146102ec5780638129fc1c1461030c5780638aa9dfb81461032157600080fd5b806336568abe14610283578063380c6f70146102a357806354fd4d50146102b857600080fd5b806301ffc9a7146101915780630e2bf60c146101c65780630ef01204146101ee57806323e30c8b14610203578063248a9ca3146102255780632f2ff15d1461026357600080fd5b3661018c57005b600080fd5b34801561019d57600080fd5b506101b16101ac366004612f07565b6104ea565b60405190151581526020015b60405180910390f35b3480156101d257600080fd5b506101db600481565b60405161ffff90911681526020016101bd565b3480156101fa57600080fd5b506101db600381565b34801561020f57600080fd5b5061022361021e366004613063565b610515565b005b34801561023157600080fd5b506102556102403660046130d8565b60009081526097602052604090206001015490565b6040519081526020016101bd565b34801561026f57600080fd5b5061022361027e3660046130f1565b6105c2565b34801561028f57600080fd5b5061022361029e3660046130f1565b6105ec565b3480156102af57600080fd5b506101db600281565b3480156102c457600080fd5b5060036101db565b3480156102d857600080fd5b506102236102e7366004613121565b61066f565b3480156102f857600080fd5b506102236103073660046130d8565b610859565b34801561031857600080fd5b506102236108c4565b34801561032d57600080fd5b506101db600681565b34801561034257600080fd5b506102236103513660046131ac565b6109d4565b34801561036257600080fd5b5061037661037136600461321d565b610a25565b6040516001600160a01b0390911681526020016101bd565b34801561039a57600080fd5b506101b16103a93660046130f1565b610a44565b3480156103ba57600080fd5b50600080516020613d78833981519152610255565b3480156103db57600080fd5b506102236103ea36600461323f565b610a6f565b3480156103fb57600080fd5b5060408051808201825260008082526020918201528151808301835261012d5463ffffffff1680825261012e549183019182528351908152905191810191909152016101bd565b34801561044e57600080fd5b50610255600081565b34801561046357600080fd5b5061012f54610255565b61022361047b366004613121565b610b6d565b34801561048c57600080fd5b506101db600581565b3480156104a157600080fd5b506102556104b03660046130d8565b610db8565b3480156104c157600080fd5b506102236104d03660046130f1565b610dcf565b3480156104e157600080fd5b506101db600181565b60006001600160e01b03198216635a05180f60e01b148061050f575061050f82610df4565b92915050565b336001600160a01b037f00000000000000000000000000000000000000000000000000000000000000001614158061055657506001600160a01b0385163014155b156105745760405163e17c49b760e01b815260040160405180910390fd5b6000808280602001905181019061058b9190613309565b9150915061059a828783610e29565b6105b9336105a8868861345f565b6001600160a01b0389169190610fa9565b50505050505050565b6000828152609760205260409020600101546105dd8161100e565b6105e78383611018565b505050565b6001600160a01b03811633146106615760405162461bcd60e51b815260206004820152602f60248201527f416363657373436f6e74726f6c3a2063616e206f6e6c792072656e6f756e636560448201526e103937b632b9903337b91039b2b63360891b60648201526084015b60405180910390fd5b61066b828261103a565b5050565b61067761105c565b838361068382826110b5565b8261068d816110e0565b6001600160a01b03851687876106a4600182613472565b8181106106b3576106b3613485565b90506020028101906106c5919061349b565b6106d69060408101906020016134bb565b6001600160a01b0316146106fd5760405163fa48e42360e01b815260040160405180910390fd5b7f00000000000000000000000000000000000000000000000000000000000000006001600160a01b031663adf51de18686308b8b8a60405160200161074493929190613558565b6040516020818303038152906040526040518563ffffffff1660e01b8152600401610772949392919061367f565b600060405180830381600087803b15801561078c57600080fd5b505af11580156107a0573d6000803e3d6000fd5b5050507f00000000000000000000000000000000000000000000000000000000000000006001600160a01b039081169087161490505b61083a5760006107ef6001600160a01b03871630611101565b9050610838600261ffff16877f0000000000000000000000000000000000000000000000000000000000000000846001426000806040518060200160405280600081525061118f565b505b6108478787878733611d2f565b50505061085360018055565b50505050565b610871600080516020613d78833981519152336120b5565b61012f54818103610880575050565b61012f82905560408051828152602081018490527f2373b5a3fa63e4ff9f945c937101e165e9d132c2bb9d5d9f5eba11fc0f009932910160405180910390a1505b50565b600054610100900460ff16158080156108e45750600054600160ff909116105b806108fe5750303b1580156108fe575060005460ff166001145b6109615760405162461bcd60e51b815260206004820152602e60248201527f496e697469616c697a61626c653a20636f6e747261637420697320616c72656160448201526d191e481a5b9a5d1a585b1a5e995960921b6064820152608401610658565b6000805460ff191660011790558015610984576000805461ff0019166101001790555b61098c6120dc565b80156108c1576000805461ff0019169055604051600181527f7f26b83ff96e1f2b6a682f133852f6798a09c465da95921460cefb38474024989060200160405180910390a150565b60fb546000906109e99061ffff1660016136bc565b905061ffff8116600314610a0f5760405162dc149f60e41b815260040160405180910390fd5b60fb805461ffff191661ffff8316179055505050565b600082815260c960205260408120610a3d908361211d565b9392505050565b60009182526097602090815260408084206001600160a01b0393909316845291905290205460ff1690565b610a87600080516020613d78833981519152336120b5565b610a9460208201826136e9565b610a9d81612129565b8160200135610aab816110e0565b61012d5461012e5463ffffffff90911690610ac960208601866136e9565b63ffffffff168263ffffffff16148015610ae65750846020013581145b15610af2575050505050565b8461012d610b008282613706565b507f707740459746824d259c9a0c2bfabcb04306f48ffc0c1c9c1404e990bf67d217905082610b3260208801886136e9565b6040805163ffffffff938416815292909116602083810191909152908201849052870135606082015260800160405180910390a15050505050565b610b7561105c565b8383610b8182826110b5565b82610b8b816110e0565b6001600160a01b0385168787610ba2600182613472565b818110610bb157610bb1613485565b9050602002810190610bc3919061349b565b610bd49060408101906020016134bb565b6001600160a01b031614610bfb5760405163fa48e42360e01b815260040160405180910390fd5b7f00000000000000000000000000000000000000000000000000000000000000006001600160a01b0390811690861614158015610ccd57506040516309bca0e760e41b81526001600160a01b0386811660048301526000917f000000000000000000000000000000000000000000000000000000000000000090911690639bca0e7090602401602060405180830381865afa158015610c9e573d6000803e3d6000fd5b505050506040513d601f19601f82011682018060405250810190610cc29190613733565b6001600160a01b0316145b15610ceb57604051632889ee7560e01b815260040160405180910390fd5b610cfd856001600160a01b0316612153565b15610d2757833414610d2257604051631d3af0a760e21b815260040160405180910390fd5b610d46565b3415610d4657604051631d3af0a760e21b815260040160405180910390fd5b610d5b6001600160a01b038616333087612175565b610d6f610d688789613750565b8686610e29565b610d836001600160a01b0386163386610fa9565b7f00000000000000000000000000000000000000000000000000000000000000006001600160a01b03908116908616146107d6565b600081815260c96020526040812061050f9061219f565b600082815260976020526040902060010154610dea8161100e565b6105e7838361103a565b60006001600160e01b03198216637965db0b60e01b148061050f57506301ffc9a760e01b6001600160e01b031983161461050f565b60005b8351811015610853576000610e7030868481518110610e4d57610e4d613485565b6020026020010151602001516001600160a01b031661110190919063ffffffff16565b9050610f52858381518110610e8757610e87613485565b60200260200101516000015161ffff1685878581518110610eaa57610eaa613485565b60200260200101516020015186898781518110610ec957610ec9613485565b6020026020010151604001518a8881518110610ee757610ee7613485565b6020026020010151606001518b8981518110610f0557610f05613485565b6020026020010151608001518c8a81518110610f2357610f23613485565b602002602001015160a001518d8b81518110610f4157610f41613485565b602002602001015160c0015161118f565b848281518110610f6457610f64613485565b602002602001015160200151935080610f8930878581518110610e4d57610e4d613485565b610f939190613472565b9250508080610fa190613848565b915050610e2c565b80600003610fb657505050565b610fbf83612153565b15610ffa576040516001600160a01b0383169082156108fc029083906000818181858888f19350505050158015610853573d6000803e3d6000fd5b6105e76001600160a01b03841683836121a9565b6108c1813361220c565b6110228282612265565b600082815260c9602052604090206105e790826122eb565b6110448282612300565b600082815260c9602052604090206105e79082612367565b6002600154036110ae5760405162461bcd60e51b815260206004820152601f60248201527f5265656e7472616e637947756172643a207265656e7472616e742063616c6c006044820152606401610658565b6002600155565b8015806110c25750600a81115b1561066b57604051633b4c3e8760e11b815260040160405180910390fd5b806000036108c157604051637c946ed760e01b815260040160405180910390fd5b600061110c83612153565b1561112257506001600160a01b0381163161050f565b826040516370a0823160e01b81526001600160a01b03848116600483015291909116906370a0823190602401602060405180830381865afa15801561116b573d6000803e3d6000fd5b505050506040513d601f19601f82011682018060405250810190610a3d9190613861565b6000198901611339576111c3887f00000000000000000000000000000000000000000000000000000000000000008861237c565b604080516003808252608082019092526000916020820160608036833701905050905088816000815181106111fa576111fa613485565b60200260200101906001600160a01b031690816001600160a01b031681525050838160018151811061122e5761122e613485565b60200260200101906001600160a01b031690816001600160a01b031681525050878160028151811061126257611262613485565b6001600160a01b039283166020918202929092010152600090611286908b16612153565b611291576000611293565b875b90507f00000000000000000000000000000000000000000000000000000000000000006001600160a01b031663b77d239b82848b8b60008060006040518863ffffffff1660e01b81526004016112ee969594939291906138be565b60206040518083038185885af115801561130c573d6000803e3d6000fd5b50505050506040513d601f19601f820116820180604052508101906113319190613861565b505050611d24565b600119890161144c5761136d887f00000000000000000000000000000000000000000000000000000000000000008861237c565b6000611381896001600160a01b0316612153565b61138c57600061138e565b865b604051636c4aff7760e11b81526001600160a01b038b811660048301528a81166024830152604482018a90526064820189905260848201889052600060a48301529192507f00000000000000000000000000000000000000000000000000000000000000009091169063d895feee90839060c40160206040518083038185885af1158015611420573d6000803e3d6000fd5b50505050506040513d601f19601f820116820180604052508101906114459190613861565b5050611d24565b600389148061145b5750600589145b156117ca57600060038a14611490577f00000000000000000000000000000000000000000000000000000000000000006114b2565b7f00000000000000000000000000000000000000000000000000000000000000005b90506114bf89828961237c565b6040805160028082526060820183526000926020830190803683370190505090506114f28a6001600160a01b0316612153565b156115ef577f00000000000000000000000000000000000000000000000000000000000000008160008151811061152b5761152b613485565b60200260200101906001600160a01b031690816001600160a01b031681525050888160018151811061155f5761155f613485565b6001600160a01b039283166020918202929092010152604051637ff36ab560e01b815290831690637ff36ab5908a906115a2908b90869030908d90600401613904565b60006040518083038185885af11580156115c0573d6000803e3d6000fd5b50505050506040513d6000823e601f3d908101601f191682016040526115e99190810190613939565b50611445565b611601896001600160a01b0316612153565b156116f857898160008151811061161a5761161a613485565b60200260200101906001600160a01b031690816001600160a01b0316815250507f00000000000000000000000000000000000000000000000000000000000000008160018151811061166e5761166e613485565b6001600160a01b0392831660209182029290920101526040516318cbafe560e01b8152908316906318cbafe5906116b1908b908b90869030908d906004016139be565b6000604051808303816000875af11580156116d0573d6000803e3d6000fd5b505050506040513d6000823e601f3d908101601f191682016040526115e99190810190613939565b898160008151811061170c5761170c613485565b60200260200101906001600160a01b031690816001600160a01b031681525050888160018151811061174057611740613485565b6001600160a01b0392831660209182029290920101526040516338ed173960e01b8152908316906338ed173990611783908b908b90869030908d906004016139be565b6000604051808303816000875af11580156117a2573d6000803e3d6000fd5b505050506040513d6000823e601f3d908101601f191682016040526113319190810190613939565b6003198901611b8a5760006117e7896001600160a01b0316612153565b6117f15788611813565b7f00000000000000000000000000000000000000000000000000000000000000005b90506000611829896001600160a01b0316612153565b6118335788611855565b7f00000000000000000000000000000000000000000000000000000000000000005b90507f00000000000000000000000000000000000000000000000000000000000000006001600160a01b0316826001600160a01b031603611905577f00000000000000000000000000000000000000000000000000000000000000006001600160a01b031663d0e30db0896040518263ffffffff1660e01b81526004016000604051808303818588803b1580156118eb57600080fd5b505af11580156118ff573d6000803e3d6000fd5b50505050505b611930827f00000000000000000000000000000000000000000000000000000000000000008a61237c565b60408051610100810182526001600160a01b038085168252838116602083015262ffffff8716828401523060608301526080820189905260a082018b905260c082018a9052600060e0830152915163414bf38960e01b815290917f0000000000000000000000000000000000000000000000000000000000000000169063414bf38990611a2590849060040181516001600160a01b03908116825260208084015182169083015260408084015162ffffff16908301526060808401518216908301526080808401519083015260a0838101519083015260c0808401519083015260e09283015116918101919091526101000190565b6020604051808303816000875af1158015611a44573d6000803e3d6000fd5b505050506040513d601f19601f82011682018060405250810190611a689190613861565b507f00000000000000000000000000000000000000000000000000000000000000006001600160a01b0316826001600160a01b031603611331576040516370a0823160e01b81523060048201527f00000000000000000000000000000000000000000000000000000000000000006001600160a01b031690632e1a7d4d9082906370a0823190602401602060405180830381865afa158015611b0e573d6000803e3d6000fd5b505050506040513d601f19601f82011682018060405250810190611b329190613861565b6040518263ffffffff1660e01b8152600401611b5091815260200190565b600060405180830381600087803b158015611b6a57600080fd5b505af1158015611b7e573d6000803e3d6000fd5b50505050505050611d24565b6005198901611d0b576001600160801b03851115611bbb57604051637d5ee39160e01b815260040160405180910390fd5b611be6887f00000000000000000000000000000000000000000000000000000000000000008861237c565b6000611bfa896001600160a01b0316612153565b611c05576000611c07565b865b9050600082806020019051810190611c1f9190613a11565b90507f00000000000000000000000000000000000000000000000000000000000000006001600160a01b031663f1c5e014838c8c858b8d6040518763ffffffff1660e01b8152600401611c76959493929190613ac3565b60206040518083038185885af1158015611c94573d6000803e3d6000fd5b50505050506040513d601f19601f82011682018060405250810190611cb99190613b4c565b506000611ccf6001600160a01b038c1630611101565b90508015611331576113316001600160a01b038c167f000000000000000000000000000000000000000000000000000000000000000083610fa9565b60405163c90c106360e01b815260040160405180910390fd5b505050505050505050565b6040516370a0823160e01b81523060048201526000907f00000000000000000000000000000000000000000000000000000000000000006001600160a01b0316906370a0823190602401602060405180830381865afa158015611d96573d6000803e3d6000fd5b505050506040513d601f19601f82011682018060405250810190611dba9190613861565b61012d54909150600090611dd990839063ffffffff16620f4240612441565b61012e54909150811115611ded575061012e545b6000611df98284613472565b905061012f54811015611e1f57604051630b1b8c1160e31b815260040160405180910390fd5b8015611e5a57611e5a7f00000000000000000000000000000000000000000000000000000000000000006001600160a01b03811690836121a9565b8115611e9457611e946001600160a01b037f00000000000000000000000000000000000000000000000000000000000000001685846121a9565b6000876001600160401b03811115611eae57611eae612f56565b604051908082528060200260200182016040528015611ed7578160200160208202803683370190505b50905060005b88811015611f4e57898982818110611ef757611ef7613485565b9050602002810190611f09919061349b565b611f17906020810190613b67565b828281518110611f2957611f29613485565b61ffff9092166020928302919091019091015280611f4681613848565b915050611edd565b506000611f5c89600161345f565b6001600160401b03811115611f7357611f73612f56565b604051908082528060200260200182016040528015611f9c578160200160208202803683370190505b5090508781600081518110611fb357611fb3613485565b60200260200101906001600160a01b031690816001600160a01b03168152505060005b89811015612059578a8a82818110611ff057611ff0613485565b9050602002810190612002919061349b565b6120139060408101906020016134bb565b8261201f83600161345f565b8151811061202f5761202f613485565b6001600160a01b03909216602092830291909101909101528061205181613848565b915050611fd6565b50856001600160a01b03167fff8eb78730569e0ec598efa1a9e2263591cdaa6ad3d6c980a57a60aeee31691883838a878960405161209b959493929190613b84565b60405180910390a250505050505050505050565b60018055565b6120bf8282610a44565b61066b57604051634ca8886760e01b815260040160405180910390fd5b600054610100900460ff166121035760405162461bcd60e51b815260040161065890613bf4565b61210b61250d565b61211361253c565b61211b612573565b565b6000610a3d83836125d4565b620f424063ffffffff821611156108c1576040516358d620b360e01b815260040160405180910390fd5b6001600160a01b031673eeeeeeeeeeeeeeeeeeeeeeeeeeeeeeeeeeeeeeee1490565b801580612186575061218684612153565b610853576108536001600160a01b0385168484846125fe565b600061050f825490565b6040516001600160a01b0383166024820152604481018290526105e790849063a9059cbb60e01b906064015b60408051601f198184030181529190526020810180516001600160e01b03166001600160e01b031990931692909217909152612636565b6122168282610a44565b61066b5761222381612708565b61222e83602061271a565b60405160200161223f929190613c3f565b60408051601f198184030181529082905262461bcd60e51b825261065891600401613cb4565b61226f8282610a44565b61066b5760008281526097602090815260408083206001600160a01b03851684529091529020805460ff191660011790556122a73390565b6001600160a01b0316816001600160a01b0316837f2f8788117e7eff1d82e926ec794901d17c78024a50270940304540a733656f0d60405160405180910390a45050565b6000610a3d836001600160a01b0384166128b5565b61230a8282610a44565b1561066b5760008281526097602090815260408083206001600160a01b0385168085529252808320805460ff1916905551339285917ff6391f5c32d9c69d2a47ea670b442974b53935d1edc7fd64eb21e047a839171b9190a45050565b6000610a3d836001600160a01b038416612904565b61238e836001600160a01b0316612153565b1561239857505050565b60006001600160a01b038416604051636eb1769f60e11b81523060048201526001600160a01b038581166024830152919091169063dd62ed3e90604401602060405180830381865afa1580156123f2573d6000803e3d6000fd5b505050506040513d601f19601f820116820180604052508101906124169190613861565b905081811015610853576108538361243083600019613472565b6001600160a01b03871691906129fe565b60008061244e8585612a25565b80519091506000036124725782816020015161246a9190613cdd565b915050610a3d565b8051831161249357604051631a93c68960e11b815260040160405180910390fd5b60006124a0868686612aac565b905060006124ae8383612ac7565b80519091506000036124d4578481602001516124ca9190613cdd565b9350505050610a3d565b60008581038616906124e68383612b4c565b905060006124fc6124f7848a613cdd565b612b83565b919091029998505050505050505050565b600054610100900460ff166125345760405162461bcd60e51b815260040161065890613bf4565b61211b612bae565b600054610100900460ff166125635760405162461bcd60e51b815260040161065890613bf4565b61256b612bd5565b61211b612bfc565b600054610100900460ff1661259a5760405162461bcd60e51b815260040161065890613bf4565b60408051808201909152620186a080825268056bc75e2d63100000602090920182905261012d805463ffffffff1916909117905561012e55565b60008260000182815481106125eb576125eb613485565b9060005260206000200154905092915050565b6040516001600160a01b03808516602483015283166044820152606481018290526108539085906323b872dd60e01b906084016121d5565b600061268b826040518060400160405280602081526020017f5361666545524332303a206c6f772d6c6576656c2063616c6c206661696c6564815250856001600160a01b0316612c619092919063ffffffff16565b8051909150156105e757808060200190518101906126a99190613cff565b6105e75760405162461bcd60e51b815260206004820152602a60248201527f5361666545524332303a204552433230206f7065726174696f6e20646964206e6044820152691bdd081cdd58d8d9595960b21b6064820152608401610658565b606061050f6001600160a01b03831660145b60606000612729836002613d21565b61273490600261345f565b6001600160401b0381111561274b5761274b612f56565b6040519080825280601f01601f191660200182016040528015612775576020820181803683370190505b509050600360fc1b8160008151811061279057612790613485565b60200101906001600160f81b031916908160001a905350600f60fb1b816001815181106127bf576127bf613485565b60200101906001600160f81b031916908160001a90535060006127e3846002613d21565b6127ee90600161345f565b90505b6001811115612866576f181899199a1a9b1b9c1cb0b131b232b360811b85600f166010811061282257612822613485565b1a60f81b82828151811061283857612838613485565b60200101906001600160f81b031916908160001a90535060049490941c9361285f81613d38565b90506127f1565b508315610a3d5760405162461bcd60e51b815260206004820181905260248201527f537472696e67733a20686578206c656e67746820696e73756666696369656e746044820152606401610658565b60008181526001830160205260408120546128fc5750815460018181018455600084815260208082209093018490558454848252828601909352604090209190915561050f565b50600061050f565b600081815260018301602052604081205480156129ed576000612928600183613472565b855490915060009061293c90600190613472565b90508181146129a157600086600001828154811061295c5761295c613485565b906000526020600020015490508087600001848154811061297f5761297f613485565b6000918252602080832090910192909255918252600188019052604090208390555b85548690806129b2576129b2613d4f565b60019003818190600052602060002001600090559055856001016000868152602001908152602001600020600090556001935050505061050f565b600091505061050f565b5092915050565b612a0783612153565b15612a1157505050565b6105e76001600160a01b0384168383612c78565b60408051808201909152600080825260208201526000612a458484612d2a565b9050838302808210612a7a5760405180604001604052808284612a689190613472565b8152602001828152509250505061050f565b60405180604001604052806001612a918585900390565b612a9b9190613472565b815260200191909152949350505050565b60008180612abc57612abc613cc7565b838509949350505050565b604080518082019091526000808252602082015281836020015110612b1457604051806040016040528084600001518152602001838560200151612b0b9190613472565b9052905061050f565b604051806040016040528060018560000151612b309190613472565b8152602001612b43856020015185900390565b90529392505050565b600080612b64612b5e84808403613cdd565b60010190565b9050828460200151612b769190613cdd565b8451820217949350505050565b60006001815b60088110156129f7578382026002038202915080612ba681613848565b915050612b89565b600054610100900460ff166120af5760405162461bcd60e51b815260040161065890613bf4565b600054610100900460ff1661211b5760405162461bcd60e51b815260040161065890613bf4565b600054610100900460ff16612c235760405162461bcd60e51b815260040161065890613bf4565b60fb805461ffff19166001179055612c49600080516020613d7883398151915280612d39565b61211b600080516020613d7883398151915233612d84565b6060612c708484600085612d8e565b949350505050565b604051636eb1769f60e11b81523060048201526001600160a01b038381166024830152600091839186169063dd62ed3e90604401602060405180830381865afa158015612cc9573d6000803e3d6000fd5b505050506040513d601f19601f82011682018060405250810190612ced9190613861565b612cf7919061345f565b6040516001600160a01b03851660248201526044810182905290915061085390859063095ea7b360e01b906064016121d5565b60006000198284099392505050565b600082815260976020526040808220600101805490849055905190918391839186917fbd79b86ffe0ab8e8776151514217cd7cacd52c909f66475c3af44e129f0b00ff9190a4505050565b61066b8282611018565b606082471015612def5760405162461bcd60e51b815260206004820152602660248201527f416464726573733a20696e73756666696369656e742062616c616e636520666f6044820152651c8818d85b1b60d21b6064820152608401610658565b600080866001600160a01b03168587604051612e0b9190613d65565b60006040518083038185875af1925050503d8060008114612e48576040519150601f19603f3d011682016040523d82523d6000602084013e612e4d565b606091505b5091509150612e5e87838387612e69565b979650505050505050565b60608315612ed8578251600003612ed1576001600160a01b0385163b612ed15760405162461bcd60e51b815260206004820152601d60248201527f416464726573733a2063616c6c20746f206e6f6e2d636f6e74726163740000006044820152606401610658565b5081612c70565b612c708383815115612eed5781518083602001fd5b8060405162461bcd60e51b81526004016106589190613cb4565b600060208284031215612f1957600080fd5b81356001600160e01b031981168114610a3d57600080fd5b6001600160a01b03811681146108c157600080fd5b8035612f5181612f31565b919050565b634e487b7160e01b600052604160045260246000fd5b60405160e081016001600160401b0381118282101715612f8e57612f8e612f56565b60405290565b604080519081016001600160401b0381118282101715612f8e57612f8e612f56565b604051601f8201601f191681016001600160401b0381118282101715612fde57612fde612f56565b604052919050565b60006001600160401b03821115612fff57612fff612f56565b50601f01601f191660200190565b600082601f83011261301e57600080fd5b813561303161302c82612fe6565b612fb6565b81815284602083860101111561304657600080fd5b816020850160208301376000918101602001919091529392505050565b600080600080600060a0868803121561307b57600080fd5b853561308681612f31565b9450602086013561309681612f31565b9350604086013592506060860135915060808601356001600160401b038111156130bf57600080fd5b6130cb8882890161300d565b9150509295509295909350565b6000602082840312156130ea57600080fd5b5035919050565b6000806040838503121561310457600080fd5b82359150602083013561311681612f31565b809150509250929050565b6000806000806060858703121561313757600080fd5b84356001600160401b038082111561314e57600080fd5b818701915087601f83011261316257600080fd5b81358181111561317157600080fd5b8860208260051b850101111561318657600080fd5b6020928301965094505085013561319c81612f31565b9396929550929360400135925050565b600080602083850312156131bf57600080fd5b82356001600160401b03808211156131d657600080fd5b818501915085601f8301126131ea57600080fd5b8135818111156131f957600080fd5b86602082850101111561320b57600080fd5b60209290920196919550909350505050565b6000806040838503121561323057600080fd5b50508035926020909101359150565b60006040828403121561325157600080fd5b50919050565b60006001600160401b0382111561327057613270612f56565b5060051b60200190565b61ffff811681146108c157600080fd5b8051612f518161327a565b8051612f5181612f31565b60005b838110156132bb5781810151838201526020016132a3565b50506000910152565b600082601f8301126132d557600080fd5b81516132e361302c82612fe6565b8181528460208386010111156132f857600080fd5b612c708260208301602087016132a0565b6000806040838503121561331c57600080fd5b82516001600160401b038082111561333357600080fd5b818501915085601f83011261334757600080fd5b8151602061335761302c83613257565b82815260059290921b8401810191818101908984111561337657600080fd5b8286015b848110156134365780518681111561339157600080fd5b870160e0818d03601f190112156133a85760008081fd5b6133b0612f6c565b6133bb86830161328a565b81526133c960408301613295565b8682015260608083015160408301526080808401518284015260a091506133f1828501613295565b818401525060c0808401518284015260e08401519150898211156134155760008081fd5b6134238f89848701016132c4565b908301525084525091830191830161337a565b5097909101519698969750505050505050565b634e487b7160e01b600052601160045260246000fd5b8082018082111561050f5761050f613449565b8181038181111561050f5761050f613449565b634e487b7160e01b600052603260045260246000fd5b6000823560de198336030181126134b157600080fd5b9190910192915050565b6000602082840312156134cd57600080fd5b8135610a3d81612f31565b8035612f518161327a565b6000808335601e198436030181126134fa57600080fd5b83016020810192503590506001600160401b0381111561351957600080fd5b80360382131561352857600080fd5b9250929050565b81835281816020850137506000828201602090810191909152601f909101601f19169091010190565b60408082528181018490526000906060808401600587901b850182018885805b8a81101561363b57888403605f190185528235368d900360de1901811261359d578283fd5b8c0160e081356135ac8161327a565b61ffff1686526020828101356135c181612f31565b6001600160a01b031687820152828a01358a880152888301358988015260806135eb818501612f46565b6001600160a01b03169088015260a0838101359088015260c0613610818501856134e3565b945083828a0152613624848a01868361352f565b998301999850505094909401935050600101613578565b50505080945050505050826020830152949350505050565b6000815180845261366b8160208601602086016132a0565b601f01601f19169290920160200192915050565b6001600160a01b03858116825260208201859052831660408201526080606082018190526000906136b290830184613653565b9695505050505050565b61ffff8181168382160190808211156129f7576129f7613449565b63ffffffff811681146108c157600080fd5b6000602082840312156136fb57600080fd5b8135610a3d816136d7565b8135613711816136d7565b63ffffffff811663ffffffff1983541617825550602082013560018201555050565b60006020828403121561374557600080fd5b8151610a3d81612f31565b600061375e61302c84613257565b80848252602080830192508560051b85013681111561377c57600080fd5b855b8181101561383c5780356001600160401b038082111561379e5760008081fd5b818901915060e082360312156137b45760008081fd5b6137bc612f6c565b6137c5836134d8565b81526137d2868401612f46565b81870152604083810135908201526060808401359082015260806137f7818501612f46565b9082015260a0838101359082015260c080840135838111156138195760008081fd5b6138253682870161300d565b91830191909152508752505093820193820161377e565b50919695505050505050565b60006001820161385a5761385a613449565b5060010190565b60006020828403121561387357600080fd5b5051919050565b600081518084526020808501945080840160005b838110156138b35781516001600160a01b03168752958201959082019060010161388e565b509495945050505050565b60c0815260006138d160c083018961387a565b60208301979097525060408101949094526001600160a01b0392831660608501529116608083015260a090910152919050565b84815260806020820152600061391d608083018661387a565b6001600160a01b03949094166040830152506060015292915050565b6000602080838503121561394c57600080fd5b82516001600160401b0381111561396257600080fd5b8301601f8101851361397357600080fd5b805161398161302c82613257565b81815260059190911b820183019083810190878311156139a057600080fd5b928401925b82841015612e5e578351825292840192908401906139a5565b85815284602082015260a0604082015260006139dd60a083018661387a565b6001600160a01b0394909416606083015250608001529392505050565b80516001600160801b0381168114612f5157600080fd5b60006020808385031215613a2457600080fd5b82516001600160401b03811115613a3a57600080fd5b8301601f81018513613a4b57600080fd5b8051613a5961302c82613257565b81815260069190911b82018301908381019087831115613a7857600080fd5b928401925b82841015612e5e5760408489031215613a965760008081fd5b613a9e612f94565b84518152613aad8686016139fa565b8187015282526040939093019290840190613a7d565b6001600160a01b038681168252851660208083019190915260a0604080840182905286519184018290526000928781019260c0860190855b81811015613b29578551805184528401516001600160801b0316848401529483019491840191600101613afb565b5050606086018890526001600160801b038716608087015293506136b292505050565b600060208284031215613b5e57600080fd5b610a3d826139fa565b600060208284031215613b7957600080fd5b8135610a3d8161327a565b60a0808252865190820181905260009060209060c0840190828a01845b82811015613bc157815161ffff1684529284019290840190600101613ba1565b50505083810382850152613bd5818961387a565b6040850197909752505050606081019290925260809091015292915050565b6020808252602b908201527f496e697469616c697a61626c653a20636f6e7472616374206973206e6f74206960408201526a6e697469616c697a696e6760a81b606082015260800190565b7f416363657373436f6e74726f6c3a206163636f756e7420000000000000000000815260008351613c778160178501602088016132a0565b7001034b99036b4b9b9b4b733903937b6329607d1b6017918401918201528351613ca88160288401602088016132a0565b01602801949350505050565b602081526000610a3d6020830184613653565b634e487b7160e01b600052601260045260246000fd5b600082613cfa57634e487b7160e01b600052601260045260246000fd5b500490565b600060208284031215613d1157600080fd5b81518015158114610a3d57600080fd5b808202811582820484141761050f5761050f613449565b600081613d4757613d47613449565b506000190190565b634e487b7160e01b600052603160045260246000fd5b600082516134b18184602087016132a056fe2172861495e7b85edac73e3cd5fbb42dd675baadf627720e687bcfdaca025096a164736f6c6343000813000a",
  "devdoc": {
    "details": "BancorArbitrage contract",
    "events": {
      "ArbitrageExecuted(address,uint16[],address[],uint256,uint256,uint256)": {
        "details": "triggered after a successful arb is executed"
      },
      "Initialized(uint8)": {
        "details": "Triggered when the contract has been initialized or reinitialized."
      },
      "MinBurnUpdated(uint256,uint256)": {
        "details": "triggered when the min bnt burn amount is updated"
      },
      "RewardsUpdated(uint32,uint32,uint256,uint256)": {
        "details": "triggered when the rewards settings are updated"
      },
      "RoleAdminChanged(bytes32,bytes32,bytes32)": {
        "details": "Emitted when `newAdminRole` is set as ``role``'s admin role, replacing `previousAdminRole` `DEFAULT_ADMIN_ROLE` is the starting admin for all roles, despite {RoleAdminChanged} not being emitted signaling this. _Available since v3.1._"
      },
      "RoleGranted(bytes32,address,address)": {
        "details": "Emitted when `account` is granted `role`. `sender` is the account that originated the contract call, an admin role bearer except when using {AccessControl-_setupRole}."
      },
      "RoleRevoked(bytes32,address,address)": {
        "details": "Emitted when `account` is revoked `role`. `sender` is the account that originated the contract call:   - if using `revokeRole`, it is the admin role bearer   - if using `renounceRole`, it is the role bearer (i.e. `account`)"
      }
    },
    "kind": "dev",
    "methods": {
      "constructor": {
        "details": "a \"virtual\" constructor that is only used to set immutable state variables"
      },
      "flashloanAndArb((uint16,address,uint256,uint256,address,uint256,bytes)[],address,uint256)": {
        "details": "execute multi-step arbitrage trade between exchanges using a flashloan from Bancor Network V3"
      },
      "fundAndArb((uint16,address,uint256,uint256,address,uint256,bytes)[],address,uint256)": {
        "details": "execute multi-step arbitrage trade between exchanges using user fundsmust approve token before executing the function"
      },
      "getRoleAdmin(bytes32)": {
        "details": "Returns the admin role that controls `role`. See {grantRole} and {revokeRole}. To change a role's admin, use {_setRoleAdmin}."
      },
      "getRoleMember(bytes32,uint256)": {
        "details": "Returns one of the accounts that have `role`. `index` must be a value between 0 and {getRoleMemberCount}, non-inclusive. Role bearers are not sorted in any particular way, and their ordering may change at any point. WARNING: When using {getRoleMember} and {getRoleMemberCount}, make sure you perform all queries on the same block. See the following https://forum.openzeppelin.com/t/iterating-over-elements-on-enumerableset-in-openzeppelin-contracts/2296[forum post] for more information."
      },
      "getRoleMemberCount(bytes32)": {
        "details": "Returns the number of accounts that have `role`. Can be used together with {getRoleMember} to enumerate all bearers of a role."
      },
      "grantRole(bytes32,address)": {
        "details": "Grants `role` to `account`. If `account` had not been already granted `role`, emits a {RoleGranted} event. Requirements: - the caller must have ``role``'s admin role. May emit a {RoleGranted} event."
      },
      "hasRole(bytes32,address)": {
        "details": "Returns `true` if `account` has been granted `role`."
      },
      "initialize()": {
        "details": "fully initializes the contract and its parents"
      },
      "minBurn()": {
        "details": "returns the min bnt burn amount"
      },
      "onFlashLoan(address,address,uint256,uint256,bytes)": {
        "details": "callback function for bancor V3 flashloanperforms the arbitrage trades"
      },
      "postUpgrade(bytes)": {
        "details": "performs post-upgrade initialization requirements: - this must can be called only once per-upgrade"
      },
      "renounceRole(bytes32,address)": {
        "details": "Revokes `role` from the calling account. Roles are often managed via {grantRole} and {revokeRole}: this function's purpose is to provide a mechanism for accounts to lose their privileges if they are compromised (such as when a trusted device is misplaced). If the calling account had been revoked `role`, emits a {RoleRevoked} event. Requirements: - the caller must be `account`. May emit a {RoleRevoked} event."
      },
      "revokeRole(bytes32,address)": {
        "details": "Revokes `role` from `account`. If `account` had been granted `role`, emits a {RoleRevoked} event. Requirements: - the caller must have ``role``'s admin role. May emit a {RoleRevoked} event."
      },
      "rewards()": {
        "details": "returns the rewards settings"
      },
      "roleAdmin()": {
        "details": "returns the admin role"
      },
      "setMinBurn(uint256)": {
        "details": "set min bnt burn amount requirements: - the caller must be the admin of the contract"
      },
      "setRewards((uint32,uint256))": {
        "details": "sets the rewards settings requirements: - the caller must be the admin of the contract"
      },
      "supportsInterface(bytes4)": {
        "details": "See {IERC165-supportsInterface}."
      }
    },
    "version": 1
  },
  "userdoc": {
    "kind": "user",
    "methods": {},
    "version": 1
  },
  "storageLayout": {
    "storage": [
      {
        "astId": 626,
        "contract": "contracts/arbitrage/BancorArbitrage.sol:BancorArbitrage",
        "label": "_initialized",
        "offset": 0,
        "slot": "0",
        "type": "t_uint8"
      },
      {
        "astId": 629,
        "contract": "contracts/arbitrage/BancorArbitrage.sol:BancorArbitrage",
        "label": "_initializing",
        "offset": 1,
        "slot": "0",
        "type": "t_bool"
      },
      {
        "astId": 802,
        "contract": "contracts/arbitrage/BancorArbitrage.sol:BancorArbitrage",
        "label": "_status",
        "offset": 0,
        "slot": "1",
        "type": "t_uint256"
      },
      {
        "astId": 860,
        "contract": "contracts/arbitrage/BancorArbitrage.sol:BancorArbitrage",
        "label": "__gap",
        "offset": 0,
        "slot": "2",
        "type": "t_array(t_uint256)49_storage"
      },
      {
        "astId": 1186,
        "contract": "contracts/arbitrage/BancorArbitrage.sol:BancorArbitrage",
        "label": "__gap",
        "offset": 0,
        "slot": "51",
        "type": "t_array(t_uint256)50_storage"
      },
      {
        "astId": 1405,
        "contract": "contracts/arbitrage/BancorArbitrage.sol:BancorArbitrage",
        "label": "__gap",
        "offset": 0,
        "slot": "101",
        "type": "t_array(t_uint256)50_storage"
      },
      {
        "astId": 225,
        "contract": "contracts/arbitrage/BancorArbitrage.sol:BancorArbitrage",
        "label": "_roles",
        "offset": 0,
        "slot": "151",
        "type": "t_mapping(t_bytes32,t_struct(RoleData)220_storage)"
      },
      {
        "astId": 520,
        "contract": "contracts/arbitrage/BancorArbitrage.sol:BancorArbitrage",
        "label": "__gap",
        "offset": 0,
        "slot": "152",
        "type": "t_array(t_uint256)49_storage"
      },
      {
        "astId": 74,
        "contract": "contracts/arbitrage/BancorArbitrage.sol:BancorArbitrage",
        "label": "_roleMembers",
        "offset": 0,
        "slot": "201",
        "type": "t_mapping(t_bytes32,t_struct(AddressSet)2609_storage)"
      },
      {
        "astId": 184,
        "contract": "contracts/arbitrage/BancorArbitrage.sol:BancorArbitrage",
        "label": "__gap",
        "offset": 0,
        "slot": "202",
        "type": "t_array(t_uint256)49_storage"
      },
      {
        "astId": 11660,
        "contract": "contracts/arbitrage/BancorArbitrage.sol:BancorArbitrage",
        "label": "_initializations",
        "offset": 0,
        "slot": "251",
        "type": "t_uint16"
      },
      {
        "astId": 11666,
        "contract": "contracts/arbitrage/BancorArbitrage.sol:BancorArbitrage",
        "label": "__gap",
        "offset": 0,
        "slot": "252",
        "type": "t_array(t_uint256)49_storage"
      },
      {
        "astId": 7814,
        "contract": "contracts/arbitrage/BancorArbitrage.sol:BancorArbitrage",
        "label": "_rewards",
        "offset": 0,
        "slot": "301",
        "type": "t_struct(Rewards)7745_storage"
      },
      {
        "astId": 7816,
        "contract": "contracts/arbitrage/BancorArbitrage.sol:BancorArbitrage",
        "label": "_minBurn",
        "offset": 0,
        "slot": "303",
        "type": "t_uint256"
      },
      {
        "astId": 7822,
        "contract": "contracts/arbitrage/BancorArbitrage.sol:BancorArbitrage",
        "label": "__gap",
        "offset": 0,
        "slot": "304",
        "type": "t_array(t_uint256)47_storage"
      }
    ],
    "types": {
      "t_address": {
        "encoding": "inplace",
        "label": "address",
        "numberOfBytes": "20"
      },
      "t_array(t_bytes32)dyn_storage": {
        "base": "t_bytes32",
        "encoding": "dynamic_array",
        "label": "bytes32[]",
        "numberOfBytes": "32"
      },
      "t_array(t_uint256)47_storage": {
        "base": "t_uint256",
        "encoding": "inplace",
        "label": "uint256[47]",
        "numberOfBytes": "1504"
      },
      "t_array(t_uint256)49_storage": {
        "base": "t_uint256",
        "encoding": "inplace",
        "label": "uint256[49]",
        "numberOfBytes": "1568"
      },
      "t_array(t_uint256)50_storage": {
        "base": "t_uint256",
        "encoding": "inplace",
        "label": "uint256[50]",
        "numberOfBytes": "1600"
      },
      "t_bool": {
        "encoding": "inplace",
        "label": "bool",
        "numberOfBytes": "1"
      },
      "t_bytes32": {
        "encoding": "inplace",
        "label": "bytes32",
        "numberOfBytes": "32"
      },
      "t_mapping(t_address,t_bool)": {
        "encoding": "mapping",
        "key": "t_address",
        "label": "mapping(address => bool)",
        "numberOfBytes": "32",
        "value": "t_bool"
      },
      "t_mapping(t_bytes32,t_struct(AddressSet)2609_storage)": {
        "encoding": "mapping",
        "key": "t_bytes32",
        "label": "mapping(bytes32 => struct EnumerableSetUpgradeable.AddressSet)",
        "numberOfBytes": "32",
        "value": "t_struct(AddressSet)2609_storage"
      },
      "t_mapping(t_bytes32,t_struct(RoleData)220_storage)": {
        "encoding": "mapping",
        "key": "t_bytes32",
        "label": "mapping(bytes32 => struct AccessControlUpgradeable.RoleData)",
        "numberOfBytes": "32",
        "value": "t_struct(RoleData)220_storage"
      },
      "t_mapping(t_bytes32,t_uint256)": {
        "encoding": "mapping",
        "key": "t_bytes32",
        "label": "mapping(bytes32 => uint256)",
        "numberOfBytes": "32",
        "value": "t_uint256"
      },
      "t_struct(AddressSet)2609_storage": {
        "encoding": "inplace",
        "label": "struct EnumerableSetUpgradeable.AddressSet",
        "members": [
          {
            "astId": 2608,
            "contract": "contracts/arbitrage/BancorArbitrage.sol:BancorArbitrage",
            "label": "_inner",
            "offset": 0,
            "slot": "0",
            "type": "t_struct(Set)2294_storage"
          }
        ],
        "numberOfBytes": "64"
      },
      "t_struct(Rewards)7745_storage": {
        "encoding": "inplace",
        "label": "struct BancorArbitrage.Rewards",
        "members": [
          {
            "astId": 7742,
            "contract": "contracts/arbitrage/BancorArbitrage.sol:BancorArbitrage",
            "label": "percentagePPM",
            "offset": 0,
            "slot": "0",
            "type": "t_uint32"
          },
          {
            "astId": 7744,
            "contract": "contracts/arbitrage/BancorArbitrage.sol:BancorArbitrage",
            "label": "maxAmount",
            "offset": 0,
            "slot": "1",
            "type": "t_uint256"
          }
        ],
        "numberOfBytes": "64"
      },
      "t_struct(RoleData)220_storage": {
        "encoding": "inplace",
        "label": "struct AccessControlUpgradeable.RoleData",
        "members": [
          {
            "astId": 217,
            "contract": "contracts/arbitrage/BancorArbitrage.sol:BancorArbitrage",
            "label": "members",
            "offset": 0,
            "slot": "0",
            "type": "t_mapping(t_address,t_bool)"
          },
          {
            "astId": 219,
            "contract": "contracts/arbitrage/BancorArbitrage.sol:BancorArbitrage",
            "label": "adminRole",
            "offset": 0,
            "slot": "1",
            "type": "t_bytes32"
          }
        ],
        "numberOfBytes": "64"
      },
      "t_struct(Set)2294_storage": {
        "encoding": "inplace",
        "label": "struct EnumerableSetUpgradeable.Set",
        "members": [
          {
            "astId": 2289,
            "contract": "contracts/arbitrage/BancorArbitrage.sol:BancorArbitrage",
            "label": "_values",
            "offset": 0,
            "slot": "0",
            "type": "t_array(t_bytes32)dyn_storage"
          },
          {
            "astId": 2293,
            "contract": "contracts/arbitrage/BancorArbitrage.sol:BancorArbitrage",
            "label": "_indexes",
            "offset": 0,
            "slot": "1",
            "type": "t_mapping(t_bytes32,t_uint256)"
          }
        ],
        "numberOfBytes": "64"
      },
      "t_uint16": {
        "encoding": "inplace",
        "label": "uint16",
        "numberOfBytes": "2"
      },
      "t_uint256": {
        "encoding": "inplace",
        "label": "uint256",
        "numberOfBytes": "32"
      },
      "t_uint32": {
        "encoding": "inplace",
        "label": "uint32",
        "numberOfBytes": "4"
      },
      "t_uint8": {
        "encoding": "inplace",
        "label": "uint8",
        "numberOfBytes": "1"
      }
    }
  }
}